:020000040000FA
:1000000045C069C068C067C066C065C064C063C0E1
:1000100062C0D8C560C05FC05EC05DC05CC05BC070
:100020005AC0C3C358C00000000000000000000414
:1000300005070000000000000000000000010204AD
:10004000081020408001020408102001020408105A
:100050002040804004040404040404040202020258
:10006000020203030303030302020300000000363D
:10007000003300300000000000380035003200007E
:10008000000000370034003100006F0311241FBE50
:10009000CFE5D4E0DEBFCDBF10E0A0E6B0E0E2EDFA
:1000A000FCE002C005900D92A438B107D9F723E017
:1000B000A4E8B0E001C01D92A835B207E1F710E056
:1000C000C6E4D0E003C02197FE01E6D5C534D107D0
:1000D000D1F76ED5FCC594CF90E080E0FC01EC57E1
:1000E000FF4F10820196811522E09207B9F708951B
:1000F00080918B028370813099F118F0823039F150
:100100000895E0918402E295EF70F0E0EF59FF4F1F
:1001100060E08081BBD42091840222952F7081E021
:1001200090E0A0E0B0E004C0880F991FAA1FBB1F99
:100130002A95D2F7809590952091890230918A0274
:100140008223932390938A02809389020895E091F9
:100150008402E295EF70F0E0EF59FF4F62E0D9CFF3
:10016000E0918402E295EF70F0E0EF59FF4F61E01B
:1001700080818CD42091840222952F7081E090E0C0
:10018000A0E0B0E004C0880F991FAA1FBB1F2A95EA
:10019000D2F72091890230918A02822B932BD2CF01
:1001A00080918502282F217080918602922F0895D8
:1001B000F7DF8C579F4FFC01808180938802089560
:1001C000EFDF209188028C579F4FFC012083089518
:1001D000E7DF68D58093880208951F93CF93DF935C
:1001E00010918802DDDFEC015DD5181731F0612F29
:1001F000CE01DF91CF911F915DC5DF91CF911F910E
:1002000008958091840282958F70E82FF0E020910C
:10021000890230918A0202C0369527958A95E2F7C5
:1002200020FF06C0EF59FF4F6091880280816AC4A9
:1002300008958091840282958F70E82FF0E02091DC
:10024000890230918A0202C0369527958A95E2F795
:1002500020FD06C0EF59FF4F808181D48093880232
:1002600008958091840282958F70E82FF0E02091AC
:10027000890230918A0202C0369527958A95E2F765
:1002800020FF07C06091880270E0EF59FF4F808126
:10029000B5C308958091840282958F70E82FF0E0B5
:1002A0002091890230918A0202C0369527958A955D
:1002B000E2F780E090E020FD04C0EF59FF4F80811D
:1002C00088D390938702809388020895CF93DF9319
:1002D00062E081E0DBD362E080E0D8D381E03FD40C
:1002E000EC0180E03CD4CC0FDD1F84668C2BDF91C9
:1002F000CF910895E9E8F2E082818C7F8283E4E87F
:10030000F2E0148213821282A5E8B2E08C918E7F13
:100310008C9310820895DADF682F8CE892E0CFD1B9
:1003200069EC71E08CE892E0D0D16DEA71E08CE884
:1003300092E0D0C10895CF93DF93C4E8D2E08D81DD
:100340006E816B838C838CE892E050D16C818CE859
:1003500092E04CD1DF91CF91CDCF809184028F700C
:10036000843081F028F4813069F0833031F00895D1
:10037000873041F08A3061F00895609187028CE8FF
:1003800092E034D1609188028CE892E02FD1B2CF14
:10039000D2CF8CE892E0CAD0892B09F4C3C08CE894
:1003A00092E0CBD08F7090918402907F982B9093A5
:1003B00084028A3070F7E82FF0E0E052FE4F099493
:1003C00009C01CC029C03BC048C057C06BC06CC02E
:1003D0007BC08FC08CE892E0B0D0982F9295907F30
:1003E000809184028F70892B809384028CE892E044
:1003F000A4D08093880205DF7DDFCBCF8CE892E02C
:100400009CD0982F9295907F809184028F70892B39
:10041000809384020EDFBDCF8CE892E08ED0982FBF
:100420009295907F809184028F70892B80938402B3
:100430008CE892E082D08093880213DFDDCF8CE8D5
:1004400092E07BD0982F9295907F809184028F705C
:10045000892B809384021EDF9CCF8CE892E06DD0C4
:100460009091850280FB90F9909385028CE892E050
:1004700064D0809386029CDE8CCF8CE892E05DD0C5
:100480009091850280FB90F9909385028CE892E030
:1004900054D0809386028CE892E04FD080938802FB
:1004A0008FDEAACF19DEA8CF8CE892E046D09091DB
:1004B000850280FB90F9909385028CE892E03DD014
:1004C0008093860285DE65CF8CE892E036D09091ED
:1004D000850280FB90F9909385028CE892E02DD004
:1004E000809386028CE892E028D08093880275DEA3
:1004F00083CF8CE892E021D0982F9295907F8091C5
:1005000084028F70892B809384028CE892E015D04E
:10051000982F937080918B028C7F892B80938B0214
:10052000E7DD6ACF089590E080E008958091BF02F2
:100530009091C002891B990B08959091C0028091FF
:10054000BF022FEF3FEF981748F4E92FF0E0EF5389
:10055000FD4F208130E09F5F9093C002C901089554
:10056000E091C0028091BF02E81730F4F0E0EF5351
:10057000FD4F808190E008958FEF9FEF08950895DB
:10058000CF93DF93EC01E0919802F09199023097BC
:10059000F1F09091C0028091BF029817C0F090E0F6
:1005A000292F30E02617370754F4DE01A20FB31FBE
:1005B0004C912F533D4FD9014C939F5FF1CF109237
:1005C000C0026093BF02CB01DF91CF910994DF910C
:1005D000CF910895E0919A02F0919B02309729F013
:1005E00010929E0210929D0209940895CF93DF937A
:1005F0001F92CDB7DEB7698320919C022223F9F0C8
:1006000020919D02203258F021E030E0FC0133833C
:10061000228390E080E00F90DF91CF910895809148
:100620009E02E82FF0E0E156FD4F998190838F5FA5
:1006300080939E0280939D0281E090E0ECCF61E088
:10064000CE01019674D0F8CFCF92DF92EF92FF9255
:100650000F931F93CF93DF937C01CB018A012091ED
:100660009C02222389F0EB016B01C40ED51ECC1530
:10067000DD0561F06991D701ED91FC910190F08168
:10068000E02DC7010995F3CF642F51D0C801DF9148
:10069000CF911F910F91FF90EF90DF90CF90089531
:1006A0001092C0021092BF0210929E0210929D0200
:1006B00027D08AEE92E067D080EC92E05FC0CF93C3
:1006C000C62FEEDF8C2FCF912FC0709399026093CD
:1006D0009802089570939B0260939A020895ECE843
:1006E000F2E01382128288EE93E0A0E0B0E084830F
:1006F0009583A683B78385E790E0918380830895EF
:1007000010924E0381E080934C0310924B0361E002
:1007100082E1F8D161E083E1F5D10898099880E29F
:1007200080B985E486BF0895880F82B90895209125
:100730000303260F3327331F21323105ECF42091B8
:100740004E03FC0190E080E0243069F082E00895DF
:10075000A09103032191AC014B5F5C4FA40FB52F17
:10076000B11D2C930196861798F380910303680FAF
:100770006093030380E0089581E008959093480317
:1007800080934703089590934A0380934903089503
:1007900085ED86BF06B604FCFDCF10924E0308958A
:1007A00085EC86BF10924E0308951F920F920FB6EC
:1007B0000F9211242F933F934F935F936F937F93E7
:1007C0008F939F93AF93BF93EF93FF9381B1887FF4
:1007D000803609F449C0E8F5883209F4A2C018F55A
:1007E000803109F498C0B8F4882309F4EFC0883048
:1007F00009F491C0FF91EF91BF91AF919F918F91BB
:100800007F916F915F914F913F912F910F900FBE0C
:100810000F901F901895883109F483C0803251F7EA
:100820008093E10214C0803409F497C040F480330F
:10083000B9F38833F9F68093E102B2DFDBCF80357C
:1008400009F480C0883509F490C0883499F6A0DF97
:10085000D1CF883909F487C030F5883729F050F4B2
:10086000883611F0803731F683E080934E03109282
:10087000E20254C0883809F476C0803919F0803813
:1008800009F0B8CF8091E202803208F06CC0E091AC
:10089000E20281E08E0F8093E20283B1F0E0ED513D
:1008A000FD4F80833BC0803B39F0E0F4803A09F48F
:1008B00073C0883A09F09ECF84E080934E03109273
:1008C000040310920303E0914903F0914A03099550
:1008D0008091030381110FC081E080930303109284
:1008E000050309C0803C09F46FC0883C09F46CC062
:1008F000883B09F07FCFE091040381E08E0F809365
:100900000403F0E0EB5FFC4F808183B99091040316
:100910008091030326C080914D0383B985EC86BF87
:1009200069CF9091260380912503981748F5E091AF
:10093000260381E08E0F80932603F0E0E95DFC4FF3
:100940008081EBCFE091260381E08E0F8093260318
:1009500083B1F0E0E95DFC4F8083909126038091A4
:1009600025039817D8F285E8DACFE091260381E0D5
:100970008E0F8093260383B1F0E0E95DFC4F808306
:1009800080914C03811163CF81E080934B0384EA13
:1009900086BF10924E032ECF03DF8091E202803299
:1009A00030F4E091E202F0E0ED51FD4F10826091F1
:1009B000E20270E0E0914703F091480383EE92E099
:1009C00009951092E20216CF85ECE2CF1092E10277
:1009D0003ECF883020F08D3008F48DE08E5020918D
:1009E000600090E4299F900111248770822B87B9C1
:1009F000369A3699FECF84B195B108951F93CF935F
:100A0000DF93182FEB0161E041D0209731F460E0D3
:100A1000812FDF91CF911F9175C0CF3FD10511F488
:100A200061E0F6CFE12FF0E0EA5DFF4FE491E530C1
:100A300069F0E73089F0E430A1F48FB580688FBDAC
:100A4000DBBDCABDDF91CF911F9108958FB5806244
:100A50008FBDD9BDC8BDF6CF85B5806285BDC3BD8C
:100A6000F1CFC038D105E4F6D2CF853041F08730E0
:100A700049F0843051F48FB58F778FBD08958FB5CD
:100A80008F7DFBCF85B58F7D85BD0895CF93DF9397
:100A900090E0FC01E35CFF4F24918C5A9F4FFC01D6
:100AA00084918823C9F090E0880F991FFC01E158D8
:100AB000FF4FA591B491FC01EB58FF4FC591D49124
:100AC00061110DC09FB7F8948C91209582238C936F
:100AD0008881282328839FBFDF91CF9108956230BA
:100AE00051F49FB7F8943C91822F809583238C9387
:100AF000E8812E2BEFCF8FB7F894EC912E2B2C930F
:100B00008FBFEACF1F93CF93DF93282F30E0F901F7
:100B1000EA5DFF4F8491F901E35CFF4FD491F90145
:100B2000EC5AFF4FC491CC23A1F0162F81119DDF09
:100B3000EC2FF0E0EE0FFF1FEB58FF4FA591B491A3
:100B40008FB7F894EC91111108C0D095DE23DC9397
:100B50008FBFDF91CF911F910895DE2BF8CFCF93F8
:100B6000DF93282F30E0F901EA5DFF4F8491F9010E
:100B7000E35CFF4FD491F901EC5AFF4FC491CC23B1
:100B800099F0811172DFEC2FF0E0EE0FFF1FE559B5
:100B9000FF4FA591B491EC91ED2381E090E009F431
:100BA00080E0DF91CF91089580E090E0FACF089542
:100BB00053D0FDDFB0DBC0E0D0E0BCDB2097E9F331
:100BC0001FDAFBCF1F920F920FB60F9211242F93B3
:100BD0003F938F939F93AF93BF93809150039091D6
:100BE0005103A0915203B091530330914F0326E07B
:100BF000230F2D3758F50296A11DB11D20934F03E9
:100C00008093500390935103A0935203B0935303E6
:100C10008091540390915503A0915603B0915703CE
:100C20000196A11DB11D8093540390935503A09389
:100C30005603B0935703BF91AF919F918F913F910E
:100C40002F910F900FBE0F901F90189529E8230F3A
:100C50000396A11DB11DD2CF789483B7826083BF64
:100C600083B7816083BF89B7816089BF1EBC8EB5A1
:100C700082608EBD8EB581608EBD8FB581608FBD67
:100C800085B5846085BD85B5806485BD329A319A0D
:100C90003098379A1AB80895EE0FFF1F0590F49117
:100CA000E02D0994E199FECF9FBB8EBBE09A992776
:100CB0008DB30895262FE199FECF9FBB8EBB2DBB30
:100CC0000FB6F894E29AE19A0FBE01960895F8944F
:100CD000FFCF0102030405060708090A0B0C0D0EDD
:100CE0000F101100000000F60224039302BF0296C9
:060CF000029D02B00200AB
:101E000001C0B2C011248FE594E09EBF8DBF84B79E
:101E1000882361F0982F9A70923041F081FF02C0C0
:101E200097EF94BF282E80E0BAD0EAC085E08EBD3F
:101E300082E08BB988E18AB986E880BD89E189B9F9
:101E40008EE0ADD0BD9A84E028E13EEF44E050E260
:101E50003DBD2CBD48BF08B602FEFDCF98B3952707
:101E600098BBA8955F9902C0815091F791D08134B9
:101E700079F48ED0182F97D0123811F480E004C076
:101E800088E0113809F083E07FD080E17DD0EECF8B
:101E9000823419F484E18FD0F8CF853411F485E0D1
:101EA000FACF853541F474D0C82F72D0D82FCC0F1B
:101EB000DD1F79D0EACF863519F484E07CD0DECFFF
:101EC000843699F565D064D0182F62D0D82E012FB2
:101ED00090E6E92EF12C57018FEFA81AB80A58D0D6
:101EE000F701808301507501B1F75DD0F5E4DF1291
:101EF00001C0FFCF50E040E063E0CE0135D07E016D
:101F000080E6C82ED12CF601419151916F0161E01C
:101F1000C7012AD0F2E0EF0EF11C1250A1F750E0F9
:101F200040E065E0CE0120D0B0CF843771F430D0EE
:101F30002FD0F82E2DD037D08E01F80185918F014A
:101F400023D0FA94F110F9CFA0CF853739F42BD0F4
:101F50008EE11AD083E918D087E096CF813509F059
:101F6000A8CF88E01CD0A5CFFC010A0167BFE89587
:101F7000112407B600FCFDCF667029F0452B19F43B
:101F800081E187BFE89508955D9BFECF8CB90895E8
:101F90005F9BFECF5C9901C0A8958CB1089598E134
:101FA00091BD81BD0895F4DF803219F088E0F7DF3C
:101FB000FFCF84E1E9CFCF93C82FEADFC150E9F723
:041FC000CF91F1CFFD
:021FFE000008D9
:00000001FF
